:1000030075087F20B12D7F1412006330B1FD7F147A
:100013001200630508C3E5089408748094804003C4
:10002300E4F508AF08A8077401088002C333D8FCBD
:10003300F4F5A020B0CA7F1412006330B0FD7F1422
:10004300120063E508700575080780021508AF08FC
:10005300A8077401088002C333D8FCF4F5A080A07C
:10006300000000EF600B7E0B7DBEDDFEDEFC1F801B
:01007300F29A
:010074002269
:0300000002007586
:0C007500787FE4F6D8FD758108020003D6
:00000001FF
